:100D940057454C434F4D4521212100505245535353
:100DA40000425554544F4E00544F00564F54450082
:100DB4005031005032005033005034005448414EFA
:100DC4004B00594F55212100526573756C747300A3
:100DD400417265004F7574004855525241592121A2
:100DE400210057494E5300434C4153480042455457
:100DF4005745454E21212100494E495449414C0053
:060E0400424547494E0083
:080F4200021200000208000089
:100EFA007F327E00120F0A7F14120F307F327E007B
:100F0A00E4FDFCD3ED9FEE6480F8EC648098501504
:100F1A00E4FBFA0BBB00010ABA03F8BBE9F50DBD05
:050F2A0000010C80DE57
:010F2F00229F
:100F30008FA0D2B2C2B0C2B17F017E00120F0AC22E
:020F4000B222DB
:060EBC007BFF7A0D79B402
:060EC2008B248A2589261D
:100EC800E4F527F528AB24AA25A9268528828527B5
:100ED80083120C92601BF5A0C2B1D2B0D2B27F01CE
:100EE8007E00120F0AC2B20528E52870D8052780AF
:010EF800D425
:010EF90022D6
:040E0A00AB07AA0682
:100E0E007522007523027C007D0AAF03AE02120C20
:100E1E00BFE52325E0241CF8A60408A6057C007D6A
:100E2E000AAF03AE02120CBFAA06AB07E5231523C9
:100E3E0070021522E523B4FFCDE522B4FFC8900061
:100E4E0000AF82EF25E0241CF808E62430F9F5A067
:100E5E00C2B1D2B0D2B27F017E00120F0AC2B2A3CB
:080E6E00E5826403458370D99D
:010E76002259
:100E77002091092092062093033094F430910B209F
:100E870091FD0515E5157002051430920B2092FDB2
:100E97000517E5177002051630930B2093FD05190A
:100EA700E5197002051830940B2094FD051BE51B0E
:050EB7007002051A2283
:100B30007F38120F037F0E120F037F01120F037F06
:100B400081120F037BFF7A0D7994120EC27F647EAF
:100B500000120F0A7F01120F037F80120F037BFF29
:100B60007A0D799F120EC2120EFA7BFF7A0D79A5CB
:100B7000120EC2120F06120F0A7FC0120F037BFF64
:100B80007A0D79AC120EC2120EFA7BFF7A0D79AF94
:100B9000120EC27F647E00120F0A7F01120F037FC4
:100BA00080120F03120EBC120F067F84120F037BFC
:100BB000FF7A0D79B7120EC2120F067F88120F034B
:100BC0007BFF7A0D79BA120EC2120F067F8C120FBC
:100BD000037BFF7A0D79BD120EC2120F06120E773B
:100BE0007F01120F037F85120F037BFF7A0D79C0FF
:100BF000120EC2120EFA7BFF7A0D79C6120EC27F58
:060C0000647E00020F0AF1
:10080000E4F508F5097F01120F037F80120F037BC7
:10081000FF7A0D79CC120EC2120EFA7BFF7A0D7997
:10082000D4120EC2120EFA7BFF7A0D79D8120EC2C4
:10083000120F067F01120F037F80120F03120EBCEE
:10084000120F067F84120F037BFF7A0D79B7120E09
:10085000C2120F067F88120F037BFF7A0D79BA123E
:100860000EC2120F067F8C120F037BFF7A0D79BD2B
:10087000120EC2120F067FC0120F307F647E00126C
:100880000F0AAF15AE14120E0A120F067FC4120F14
:1008900003AF17AE16120E0A120F067FC8120F030F
:1008A000AF19AE18120E0A120F067FCC120F03AF4B
:1008B0001BAE1A120E0A7F2C7E01120F0A85140A33
:1008C00085150B85160C85170D85180E85190F8556
:1008D0001A10851B11E4FF1EEF25E0240AF8E6FC40
:1008E00008E6FDC39513E5126480F8EC6480984037
:1008F000048C128D130FBF00010EEF64044E70D8EC
:10090000E51365157004E51265147057E513651756
:100910007004E5126516604BE51365197004E51265
:100920006518603FE513651B7004E512651A6033B6
:100930007508007509017F01120F037F82120F03F2
:100940007BFF7A0D79DC120EC2120F067FC4120FE4
:1009500003120EBC120EFA7BFF7A0D79E6120EC25C
:10096000120F06E51365177004E5126516705DE554
:100970001365157004E51265146051E5136519706F
:1009800004E51265186045E513651B7004E5126502
:100990001A60397508007509017F01120F037F8203
:1009A000120F037BFF7A0D79DC120EC2120F067F45
:1009B000C4120F037BFF7A0D79B7120EC2120EFA22
:1009C0007BFF7A0D79E6120EC2120F06E513651948
:1009D0007004E5126518705DE51365177004E51283
:1009E00065166051E51365157004E51265146045E0
:1009F000E513651B7004E512651A6039750800750A
:100A000009017F01120F037F82120F037BFF7A0D12
:100A100079DC120EC2120F067FC4120F037BFF7A1D
:100A20000D79BA120EC2120EFA7BFF7A0D79E61218
:100A30000EC2120F06E513651B7004E512651A70ED
:100A40005DE51365177004E51265166051E51365E1
:100A5000197004E51265186045E51365157004E525
:100A600012651460397508007509017F01120F03C2
:100A70007F82120F037BFF7A0D79DC120EC2120FF8
:100A8000067FC4120F037BFF7A0D79BD120EC212CE
:100A90000EFA7BFF7A0D79E6120EC2120F06E509F7
:100AA00045086003020B2F7F01120F037F82120F94
:100AB000037BFF7A0D79EB120EC2120EFA7BFF7ADE
:100AC0000D79F1120EC2120F06E513B51510E512DD
:100AD000B5140B7FC1120F30120EBC120F06E513B6
:100AE000B51716E512B516117FC5120F307BFF7AC8
:100AF0000D79B7120EC2120F06E513B51916E512DD
:100B0000B518117FC9120F307BFF7A0D79BA120E1A
:100B1000C2120F06E513B51B16E512B51A117FCDEB
:0F0B2000120F307BFF7A0D79BD120EC2120F0635
:010B2F0022A3
:100D1400D295D290E4F51AF51BF518F519F516F5E8
:100D240017F514F515C294C293C292C2917F38127A
:100D34000F037F0E120F037F01120F037F80120F28
:100D4400037BFF7A0D799F120EC2120EFA7BFF7A93
:100D54000D79FC120EC2120F06120F0A7FC0120F79
:100D6400037BFF7A0D79AC120EC2120EFA7BFF7A66
:100D74000E7904120EC27F647E00120F0A309003B3
:100D84002095FA309505120B3080F212080080FE8F
:03000000020C06E9
:0C0C0600787FE4F6D8FD758128020C4DC3
:100C9200BB010CE58229F582E5833AF583E0225017
:100CA20006E92582F8E622BBFE06E92582F8E22261
:0D0CB200E58229F582E5833AF583E493227B
:100CBF00BC000BBE0029EF8DF084FFADF022E4CC19
:100CCF00F875F008EF2FFFEE33FEEC33FCEE9DECE2
:100CDF00984005FCEE9DFE0FD5F0E9E4CEFD22ED28
:100CEF00F8F5F0EE8420D21CFEADF075F008EF2F72
:100CFF00FFED33FD4007985006D5F0F222C398FD63
:050D0F000FD5F0EA22FF
:100C1200020D14E493A3F8E493A34003F68001F2D7
:100C220008DFF48029E493A3F85407240CC8C333E3
:100C3200C4540F4420C8834004F456800146F6DFB2
:100C4200E4800B0102040810204080900F42E47EF1
:100C5200019360BCA3FF543F30E509541FFEE493A7
:100C6200A360010ECF54C025E060A840B8E493A36E
:100C7200FAE493A3F8E493A3C8C582C8CAC583CA99
:100C8200F0A3C8C582C8CAC583CADFE9DEE780BE51
:010F4A0000A6
:00000001FF
